:100000000C947E030C94A6030C94A6030C94A603F4
:100010000C94A6030C94A6030C94A6030C94A603BC
:100020000C94A6030C94A6030C94F9090C945606A0
:100030000C94A6030C94A6030C94A6030C94A6039C
:100040000C94A6030C94A6030C94A6030C94A6038C
:100050000C94A6030C94A6030C94A6030C947805A8
:100060000C94A6030C94A6030C94A6030C94A6036C
:100070000C94A6030C94A6030C94A6030C94A6035C
:100080000C94A6030C94A6030C94A6030C94A6034C
:100090000C94A6030C94A6030C94A6030C94A6033C
:1000A0000C94A6030C94A6030C94A6030102040866
:1000B0001020408000000000003E5B4F5B3E3E6B26
:1000C0004F6B3E1C3E7C3E1C183C7E3C181C577DF2
:1000D000571C1C5E7F5E1C00183C1800FFE7C3E73E
:1000E000FF0018241800FFE7DBE7FF30483A060E50
:1000F0002629792926407F050507407F05253F5A97
:100100003CE73C5A7F3E1C1C08081C1C3E7F142206
:100110007F22145F5F005F5F06097F017F006689B1
:10012000956A606060606094A2FFA29408047E04F7
:100130000810207E201008082A1C08081C2A08081D
:100140001E101010100C1E0C1E0C30383E383006DD
:100150000E3E0E06000000000000005F00000007D9
:10016000000700147F147F14242A7F2A1223130807
:10017000646236495620500008070300001C2241E3
:10018000000041221C002A1C7F1C2A08083E080887
:100190000080703000080808080800006060002037
:1001A000100804023E5149453E00427F400072491A
:1001B0004949462141494D331814127F10274545BE
:1001C00045393C4A494931412111090736494949D4
:1001D00036464949291E0000140000004034000042
:1001E00000081422411414141414004122140802AB
:1001F000015909063E415D594E7C1211127C7F491E
:100200004949363E414141227F4141413E7F494972
:1002100049417F090909013E414151737F0808089E
:100220007F00417F41002040413F017F081422416F
:100230007F404040407F021C027F7F0408107F3EC9
:100240004141413E7F090909063E4151215E7F0936
:10025000192946264949493203017F01033F40409D
:10026000403F1F2040201F3F4038403F6314081488
:100270006303047804036159494D43007F414141C0
:100280000204081020004141417F040201020440A1
:1002900040404040000307080020545478407F2825
:1002A0004444383844444428384444287F3854541B
:1002B000541800087E090218A4A49C787F0804043E
:1002C0007800447D40002040403D007F10284400DD
:1002D00000417F40007C047804787C08040478386E
:1002E00044444438FC1824241818242418FC7C089E
:1002F000040408485454542404043F44243C40401B
:10030000207C1C2040201C3C4030403C44281028CD
:10031000444C9090907C4464544C44000836410016
:100320000000770000004136080002010204023C90
:100330002623263C1EA1A161123A4040207A38545F
:1003400054555921555579412154547841215554DA
:10035000784020545579400C1E527212395555552B
:1003600059395454545939555454580000457C4116
:100370000002457D420001457C40F0292429F0F02F
:10038000282528F07C545545002054547C547C0A80
:10039000097F4932494949323248484832324A484D
:1003A00048303A4141217A3A42402078009DA0A04D
:1003B0007D39444444393D4040403D3C24FF2424A1
:1003C000487E4943662B2FFC2F2BFF0929F620C0BE
:1003D000887E090320545479410000447D4130480F
:1003E000484A32384040227A007A0A0A727D0D1952
:1003F000317D2629292F28262929292630484D40B4
:1004000020380808080808080808382F10C8ACBAAF
:100410002F102834FA00007B000008142A1422222E
:10042000142A14089500220095AA005500AAAA557E
:10043000AA55AA000000FF00101010FF00141414A9
:10044000FF001010FF00FF1010F010F0141414FC47
:10045000001414F700FF0000FF00FF1414F404FC64
:10046000141417101F10101F101F1414141F001045
:100470001010F0000000001F101010101F101010BE
:1004800010F010000000FF101010101010101010CD
:10049000FF10000000FF140000FF00FF00001F100D
:1004A000170000FC04F414141710171414F404F4C7
:1004B0000000FF00F714141414141414F700F714B8
:1004C0001414171410101F101F141414F414101007
:1004D000F010F000001F101F0000001F14000000AB
:1004E000FC140000F010F01010FF10FF141414FFA3
:1004F000141010101F00000000F010FFFFFFFFFF9E
:10050000F0F0F0F0F0FFFFFF0000000000FFFF0F31
:100510000F0F0F0F38444438447C2A2A3E147E02C1
:10052000020606027E027E02635549416338444456
:100530003C04407E201E2006027E020299A5E7A50B
:10054000991C2A492A1C4C7201724C304A4D4D307C
:100550003048784830BC625A463D3E494949007EA1
:100560000101017E2A2A2A2A2A44445F4444405138
:100570004A444040444A51400000FF0103E080FFEC
:10058000000008086B6B083612362436060F090F78
:1005900006000018180000001010003040FF010194
:1005A000001F01011E00191D1712003C3C3C3C00BD
:1005B00000000000F0F89C8E8783878E9CF8F00086
:1005C00000FEFF0303030303070EFCF80000FEFF19
:1005D0000303030303070EFCF80000FFFF00000005
:1005E00000000000FFFF0000FEFF8383838383C7BA
:1005F000EE7C380000F8FC0E07030303070EFCF83E
:1006000000003F7FE0C08080C0E07F3FFFFF01012E
:100610000101010101FFFF0000FFFF0C0C0C0C1C8D
:100620003E77E3C100007FFFC0C0C0C0C0E0703FA4
:100630001F00001F3F70E0C0C0C0E0703F1F0000FF
:100640007FFFC1C1C1C1C1E3773E1C00001F3F70E5
:10065000E0C0C0C0E0703F1F000000000001FFFFCD
:1006600001000000D5F08D14A1C881CFD9F1AF20D1
:1006700000080800DCDE327F73BD00080B000202B8
:10068000020100090400000102020000052400101C
:1006900001052401010104240206052406000107C6
:1006A00005810310004009040100020A0000000750
:1006B0000502024000000705830240000004030910
:1006C0000441726475696E6F204C4C430041726442
:1006D00075626F790012010002000000404123366C
:1006E0008000010102030112010002EF02014041FA
:1006F00023368000010102030100D30D11241FBE27
:10070000CFEFDAE0DEBFCDBF25E0A8E3B1E001C066
:100710001D92A73CB207E1F711E0A0E0B1E0E6E5E9
:10072000FCE102C005900D92A833B107D9F713E0A0
:10073000CEE7D3E004C02197FE010E94080ECD371A
:10074000D107C9F70E946B0A0C94290E0C94000083
:10075000CF92DF92EF92FF920F931F93CF93DF938D
:100760006C017A018B01C0E0D0E0CE15DF0589F085
:10077000D8016D918D01D601ED91FC910190F08130
:10078000E02DC6010995892B11F47E0102C0219646
:10079000ECCFC701DF91CF911F910F91FF90EF90A8
:1007A000DF90CF9008953FB7F894809139019091F0
:1007B0003A01A0913B01B0913C0126B5A89B05C030
:1007C0002F3F19F00196A11DB11D3FBFBA2FA92FD0
:1007D000982F8827820F911DA11DB11DBC01CD014D
:1007E00042E0660F771F881F991F4A95D1F7089539
:1007F0002D9A08958FB12CB193B130E020953095AA
:1008000020743327A90123E0559547952A95E1F7F0
:10081000292F30E020953095207133273595279585
:1008200035952795242B8095807F822B089583B75B
:10083000817F83BF83B7816083BF889583B78E7FB5
:1008400083BF08958EBD00000DB407FEFDCF08954F
:100850002F923F924F925F926F927F928F929F92D0
:10086000AF92BF92CF92DF92EF92FF920F931F93BE
:10087000CF93DF93CDB7DEB727970FB6F894DEBFDF
:100880000FBECDBF9B838A836A30A1F4DC015C96E6
:100890002C915C9758968D919C915997B8E02B9F1D
:1008A000800D911D1124EA81FB81918F808F178A21
:1008B000168AC1C06D3009F4BEC0AA81BB815C96A6
:1008C0004C915C975B966C905B976E825A967C908D
:1008D0005A977F825896CD90DC90599756968D9175
:1008E0009C91579780389105C4F0AA81BB815C9692
:1008F0002C915C97422F50E056968D919C91579782
:10090000B6E02B9F800D911D1124EA81FB81978B0E
:10091000868B258D21117AC08EC0F0E4CF16D104CC
:1009200024F79C0155E0459F200D311D112412161E
:100930001306DCF6242E312C9601A8E04A9F200DE8
:10094000311D11241216130684F6B5E06B9FB00119
:100950001124FB01EC54FF4F2F0150E0F201B49041
:10096000553009F4B12C7601B8E09B2EB0FC02C0E2
:100970008E8001C08F8081100BC06E807F806710D9
:1009800007C0B6949A94E20CF31C9110EFCF33C0D9
:100990009C012983622F681B641798F7B701E62F23
:1009A000EE19E41728F520383105F8F460347105A4
:1009B000E0F48B01ECEAF0E0A0E16A2E7980609E21
:1009C000D001A0781124A70D0770E00FF11DA490AD
:1009D000BD83AC83A45BBE4F882019F0EC91AE2A96
:1009E00003C0A094EC91AE22AC926F5F7F4FD7CF43
:1009F0002F5F3F4FCECF5F5F820D931D92012F5F20
:100A00003F4F2901563009F0A9CF6FCF6AEF640339
:100A10009001659F300D112420583F4F281739074A
:100A200054F48A819B81DC01ED91FC910190F0816D
:100A3000E02D6AE0099581E090E027960FB6F894E2
:100A4000DEBF0FBECDBFDF91CF911F910F91FF9001
:100A5000EF90DF90CF90BF90AF909F908F907F905E
:100A60006F905F904F903F902F90089508950E944F
:100A70000E0E8F929F92AF92BF92CF92DF92EF9223
:100A8000FF926B017C010E94D3034B015C01C114F6
:100A9000D104E104F104F1F00E94D303DC01CB01A5
:100AA00088199909AA09BB09883E9340A105B10597
:100AB00070F321E0C21AD108E108F10888EE880E2F
:100AC00083E0981EA11CB11CC114D104E104F104FF
:100AD00019F7DDCFFF90EF90DF90CF90BF90AF90F0
:100AE0009F908F900895BC0180E090E00C943905B0
:100AF0001F920F920FB60F9211242F933F938F9353
:100B00009F93AF93BF9380913E0190913F01A0913D
:100B10004001B09141013091380123E0230F2D377E
:100B200020F40196A11DB11D05C026E8230F0296F1
:100B3000A11DB11D2093380180933E0190933F0188
:100B4000A0934001B09341018091390190913A0105
:100B5000A0913B01B0913C010196A11DB11D809374
:100B6000390190933A01A0933B01B0933C01BF91AE
:100B7000AF919F918F913F912F910F900FBE0F904A
:100B80001F901895409147015091480120914501CF
:100B90003091460142175307B4F49091E8009570E4
:100BA000E1F39091E80092FD19C08093F1008091EB
:100BB00047019091480101968F739927892B19F469
:100BC0008EEF8093E8008091470190914801019653
:100BD000909348018093470181E0089580E0089553
:100BE000DF92EF92FF920F931F93CF93DF93D82E54
:100BF0008A017B01E40EF51EEB01CE15DF0571F0D5
:100C0000D7FE03C0FE01849101C088810E94C20505
:100C100021968111F2CF8FEF9FEF01C0C801DF91C4
:100C2000CF911F910F91FF90EF90DF900895615049
:100C300030F02091F100FC0120830196F8CF289834
:100C400084E680934A0108950F931F93CF93DF9317
:100C50001F92CDB7DEB782E0898342E450E06BE7B4
:100C600076E080E80E94F0050E94E509DC0112961A
:100C70000D911C9113970115110569F0D801ED91A3
:100C8000FC910280F381E02DBE016F5F7F4FC801B0
:100C9000099597FF07C089810F90DF91CF911F9130
:100CA0000F910895F80100851185E5CF1F920F92ED
:100CB0000FB60F921124CF92DF92EF92FF920F9313
:100CC0001F932F933F934F935F936F937F938F93D4
:100CD0009F93AF93BF93EF93FF93CF93DF93CDB7E2
:100CE000DEB76C97DEBFCDBF1092E9008091E800BF
:100CF00083FFFAC168E0CE0145960E94170682EF95
:100D00008093E8008D8987FF05C09091E80090FFEF
:100D1000FCCF03C09EEF9093E800982F907609F0E7
:100D2000C6C09E892F89188D91110CC0803829F476
:100D3000809143018093F10002C01092F100109263
:100D4000F10047C1422F50E0512B913051F48111F5
:100D500040C14130510509F03CC1809143018D7F74
:100D60000BC0933061F4811134C14130510509F059
:100D700030C1809143018260809343012AC1953044
:100D800041F48091E80080FFFCCF20682093E300CD
:100D900020C1963009F05FC0EB8CFC8C1092E9000A
:100DA0001092480110924701123091F510924601BD
:100DB000109245010E94240699E0BE016F5F7F4FAB
:100DC000DB01E92F1D92EA95E9F799831A8391E0F7
:100DD0009E8390EA98879AEF9987209147013091F6
:100DE0004801275F3F4F3C832B838D831092E9009E
:100DF0001092480110924701F0924601E09245019D
:100E000049E050E080E00E94F0050E942406E1C025
:100E1000F0924601E09245010E94E509DC0112963C
:100E2000ED90FC901397E114F10409F4C0C0D701D0
:100E3000ED91FC910480F581E02DBE016B5E7F4F4A
:100E4000C7010995009719F00CF0C3C0C6C0F7019F
:100E5000E084F184E8CF973009F4BFC0983021F4E2
:100E600081E08093F100B5C0993009F0B2C0837081
:100E700009F0B3C0E1E1F1E081E021E036E39081E7
:100E8000992361F08093E9002093EB009191909376
:100E9000EC003093ED008F5F873089F78EE7809309
:100EA000EA001092EA008F8980934B0192C08B8DEB
:100EB0009C8D1092E9001092480110924701909386
:100EC000460180934501898D811156C08E899D8987
:100ED000913A59F4813209F080C047E050E064E073
:100EE00071E080E00E94F00574C0913209F075C095
:100EF000833289F4888D90E0982F88272F89822B60
:100F0000A0E0B0E08093000190930101A093020162
:100F1000B09303015EC0803269F48091E80082FFE3
:100F2000FCCF67E084E091E00E9417068BEF80938E
:100F3000E80006C0823209F04CC08F8980930B0113
:100F400080914201882319F0EEEFFAE002C0E0E060
:100F5000F8E08091040190910501A0910601B09103
:100F60000701803B9440A105B10509F088C080913C
:100F70000B0180FFA0C083C00E94E509DC0112962E
:100F80000D911C9113970115110539F1D801ED91BF
:100F9000FC910190F081E02DBE016B5E7F4FC80196
:100FA0000995811116C0F80100851185ECCF11302B
:100FB000C1F0133091F48F89882309F455C0823031
:100FC000E9F440E867E08DEC96E00E94960D8823F6
:100FD00021F08EEF8093E80087C081E28093EB00E0
:100FE00083C08B8D9C8D089711F4109344018091E0
:100FF0004401811136C065ED76E038C0813029F4B6
:1010000040E86BE081EC96E0E0CF833031F70E945E
:10101000E509DC011296ED90FC9013978E010F5FAD
:101020001F4F6801E114F10479F0D701ED91FC91B3
:101030000680F781E02DB801C7010995080F111D41
:10104000F701E084F184EECFD8011C92F601019003
:101050000020E9F73197BF016C197D0940E0C60116
:10106000B4CF67EE76E002C06DEB76E061157105F6
:1010700009F4B3CFFB01449150E080E833CF0FB6C1
:10108000F894A89580916000886180936000109228
:1010900060000FBEA895EE3F2AE0F20739F080917C
:1010A000FE0A9091FF0A9183808393CF1092FF0AEA
:1010B0001092FE0A8ECFEE3F8AE0F80731F0808171
:1010C00091819093FF0A8093FE0A87E797E79183C7
:1010D00080839BE088E10FB6F894A8958093600028
:1010E0000FBE9093600075CF6C960FB6F894DEBF7C
:1010F0000FBECDBFDF91CF91FF91EF91BF91AF9127
:101100009F918F917F916F915F914F913F912F911F
:101110001F910F91FF90EF90DF90CF900F900FBE37
:101120000F901F901895FC0180914B01811103C015
:101130008FEF9FEF08959FB7F89482E08093E900C6
:101140002091F20030E01216130614F421E030E092
:101150002115310559F0289884E680934A01809141
:10116000F10080838091F200882319F09FBFC901AC
:1011700008958BE68093E800F9CFCF93DF931F9219
:10118000CDB7DEB76983DC01ED91FC910280F3817C
:10119000E02D41E050E0BE016F5F7F4F09950F9059
:1011A000DF91CF91089583E08093E9008091F20070
:1011B000882319F08AE38093E8000895CF93DF93A2
:1011C0001F92CDB7DEB7FC018485958597FD05C0DC
:1011D0002FEF3FEF358724870BC0CE0101960E9489
:1011E0009308019719F4898190E002C08FEF9FEF77
:1011F0000F90DF91CF9108950F931F93CF93DF93BB
:101200001F92CDB7DEB78C01FC018485958597FFD1
:101210000EC0CE0101960E949308019719F429810E
:1012200030E002C02FEF3FEFF80135872487F80147
:10123000848595850F90DF91CF911F910F9108952F
:10124000FC018485958597FD0BC09FB7F89482E0DB
:101250008093E9008091F2009FBF90E0019608958D
:101260009FB7F89482E08093E9008091F2009FBFDD
:1012700090E008958F929F92AF92BF92CF92DF92AB
:10128000EF92FF920F931F93CF93DF935C016B015B
:101290008A0180910B01882309F45EC080914B0183
:1012A000882309F459C08091490180FF05C08091CD
:1012B000E00082608093E000E8018AEFF82E93E07E
:1012C000E92E2FE3822E3AE3932E209709F43DC0B6
:1012D0008FB7F894E092E9009091E80095FF06C07E
:1012E0009091F200282D291B922F01C090E08FBF12
:1012F00091110AC0FA94FF2079F161E070E080E07A
:1013000090E00E943905E1CF292F30E0C217D307C2
:101310000CF49C2F8FB7F894E092E9002091E8003C
:1013200025FF11C0292F30E0C21BD30BF6019150CD
:1013300020F041914093F100FACFC20ED31E90915C
:10134000E80095FF13C08FBFC0CF5D9884E68093FF
:101350006A051016110644F081E090E0F5019383D0
:10136000828380E090E005C0C80103C09092E8004D
:10137000EACFDF91CF911F910F91FF90EF90DF9017
:10138000CF90BF90AF909F908F90089580E0ECE455
:10139000F1E081118FEF00248193819381938193F8
:1013A0000394D1F7089580914C018EBDEDE4F1E0F6
:1013B00081910DB407FEFDCF8EBD85E0EC34F807BA
:1013C000B9F70DB407FEFDCF089580916F05811127
:1013D0000DC082E080936B0584E080936C051092D1
:1013E0006E0510926D0581E080936F058BE695E0A8
:1013F00008951F920F920FB60F9211248F939F930F
:101400008091E1009091E100937F9093E10083FF50
:101410000FC01092E90091E09093EB001092EC0065
:1014200092E39093ED0010924B0198E09093F000BE
:1014300082FF20C093E09093E9009091F2009923FD
:1014400019F09AE39093E80090916A05992339F096
:1014500090916A05915090936A05992389F1909132
:101460004A01992339F090914A01915090934A0191
:10147000992341F184FF10C08091E2008E7E81604B
:101480008093E2008091E1008F7E8093E100809163
:1014900049018E7E806111C080FF16C08091E200FC
:1014A0008E7E80618093E2008091E1008E7E809349
:1014B000E100809149018E7E81608093490104C0E2
:1014C0005D9ACDCF289AD6CF9F918F910F900FBE66
:1014D0000F901F901895CF93DF9300D0CDB7DEB754
:1014E000789484B5826084BD84B5816084BD85B5FF
:1014F000826085BD85B5816085BD80916E0081600B
:1015000080936E00109281008091810082608093B0
:1015100081008091810081608093810080918000B2
:10152000816080938000809191008260809391001F
:101530008091910081608093910080919000816002
:10154000809390008091C10084608093C10080915D
:10155000C10082608093C1008091C100816080934E
:10156000C1008091C30081608093C3008091C0005E
:1015700082608093C0008091C20081608093C2002D
:1015800080917A00846080937A0080917A008260F2
:1015900080937A0080917A00816080937A008091B4
:1015A0007A00806880937A0010924B011092430178
:1015B000109249018091D70081608093D70080EA22
:1015C0008093D80089B5806189BD89B5826089BD65
:1015D00009B400FEFDCF61E070E080E090E00E9481
:1015E00039058091D8008F7C80618093D8008091EC
:1015F000E000807F8093E0008091E1008E7E809308
:10160000E1008DE08093E200559A209AEEEFFFE72B
:10161000859194918B3F9C4D19F481E08093420118
:1016200081EC80937C0085B1806F85B9249884B16A
:10163000866E84B95E9A5F988AB1806D8AB9769A0F
:101640006E9881B3806F81BB899880B38D7080BBA9
:1016500080E58CBD81E08DBD85E090E00E94730542
:101660005F9A85E090E00E9473055E985C9804E6BE
:1016700016E0FDE0FF2EF00EF80184910E94220496
:101680000F5F1F4FF012F8CF5C9A81E880936400DF
:1016900081E08093650000E014E080E00E94220475
:1016A00001501109D1F70E94FA0387FF1FC05C980F
:1016B00085EA0E9422045C9A2E982F982D9880919A
:1016C00064008062809364000E941704FDCF2D980F
:1016D0000E94FA038478843871F00E94FA038471BE
:1016E000843131F188EC90E00E9473050E94FA0386
:1016F00082FDEDCF3AC00E94F80388EC90E00E9492
:1017000073052F9882E090E00E94130E8F3F29F01E
:101710006FEF82E090E00E941B0E84EF91E00E9448
:1017200073052F9A0E94FA0384788438D9F3D5CFB1
:101730000E94F80388EC90E00E9473052E9882E0E6
:1017400090E00E94130E882329F060E082E090E090
:101750000E941B0E84EF91E00E9473052E9A0E9456
:10176000FA0384718431D9F3BDCF0E94F80382E07B
:1017700090E00E94130E882331F03E9A3F9A81E058
:1017800080933D0104C010923D013E983F982E98F1
:101790000EEE1FEFE8E0AE2EB12C0E94FA0386FF9A
:1017A00004C02E9A2F9A2D9A8CC00C3FFFEF1F0772
:1017B00019F42E9A2F9805C00831110511F42F9AAB
:1017C0002D980E94C609003F2FEF120784F40E9453
:1017D000D3098BE190E00E947305003F4FEF14079F
:1017E00009F059C08AEF90E00E94730554C0980137
:1017F00017FF04C022273327201B310B2770332704
:10180000C80117FD079673E0959587957A95E1F7DE
:1018100017FF05C00197F501E21BF30B9F017C0147
:10182000F694FE2CEE24F794E79460E070E0350126
:10183000621A730AA70140585F4F4A018F3F5FEF5A
:10184000950744F40196685A7F4F7401603B710517
:1018500089F7BDCFD701A052BE4F40E050E08F3F87
:10186000EFEF9E0709F403C1FA01E60FF71FEC54EE
:10187000FA4FE4916D01C818D908CE0CDF1CF0E0D6
:101880001F01022E01C0220C0A94EAF7F6015080D3
:1018900025282082ECC00F5F1F4F0931110509F088
:1018A0007CCF8CEB92E00E9473050E94F803E091DC
:1018B0005005F09151050190F081E02D80E595E013
:1018C000099582E390E00E9473050E94FA0381115A
:1018D000F8CF0E94C6091092650510926405109217
:1018E00063051092620521E7222E26E0322E32E7B0
:1018F000E32E36E0F32E43E7C42E46E0D42E50E02C
:10190000A52E50E0B52E992493942FB7F89480918A
:101910003E0190913F01A0914001B09141012FBF44
:1019200040915C0550915D0560915E0570915F0589
:1019300020916005222341F020915805821B80935D
:101940006105109260058CC084179507A607B7073C
:1019500038F4481B423008F483C00E94170480C04A
:10196000909260058093580590935905A0935A056D
:10197000B0935B0520915705820F911DA11DB11DEC
:1019800080935C0590935D05A0935E05B0935F0521
:10199000809153059091540501969093540580933E
:1019A00053050E94C60910926505109264051092B5
:1019B000630510926205F1016490F7018491C114EE
:1019C000D10409F44BC0662D70E06D37710514F039
:1019D0009DE7692E21E0982F977009F420E0869505
:1019E00086958695822E880EF8E0F81510F488E02A
:1019F000882E43E756E0712C23E030E0781471F133
:101A0000D901A45BBE4F80E090E0861508F5FA018D
:101A1000E80FF91FE49110E1E19F200111245A829F
:101A2000498277FE0BC0FD01E058FF4F5080152D15
:101A3000107F512E4A805428508207C0EC91EF70DD
:101A4000E429EC93E6E0E71574F701961196DDCFF3
:101A50007394460F571F20583F4FD0CF0E94D30991
:101A6000A114B10409F451CF0E9400004ECF2115FA
:101A7000310581F0FA01E60FF71FEC54FA4FE491BB
:101A8000F0E0062C02C0F595E7950A94E2F7DC90A9
:101A9000ED29EC934F5F5F4F11964835510509F0E2
:101AA000DECED0CE0F931F93CF93DF938C0181E0D6
:101AB00090E00E94130E80FF31C08AE090E00E9407
:101AC000130E9FEF980F9E3F48F522E330E0D801B8
:101AD00057963C932E93569728E330E059963C93C3
:101AE0002E935897CBE0D0E0D801ED91FC91019076
:101AF000F081E02D682FC8010995CE010E94130ED8
:101B00002196C131D10581F70E94D30988EE93E077
:101B1000DF91CF911F910F910C947305DF91CF91BD
:101B20001F910F91089504970C94520DCF92DF925C
:101B3000EF92FF920F931F93CF93DF931F92CDB736
:101B4000DEB7182F062FE42E862F880F8E5F99831D
:101B50000E94C20583E00E94C205F12EC12E998128
:101B6000D92E8C2D8F19801798F4F601E7FE02C04C
:101B7000849101C080810E94C205182F80E00E94DC
:101B8000C2058123FFEFCF1ADF0A8111EACF01C01E
:101B900081E00F90DF91CF911F910F91FF90EF9017
:101BA000DF90CF900895E7E7F5E01382128288EE88
:101BB00093E0A0E0B0E084839583A683B7838BE1B4
:101BC00091E0918380838FEF9FEF95878487ECE48A
:101BD000F5E0138212821186128620E12387908716
:101BE0008783108A118A128A138A148A8BE291E001
:101BF0009183808385E391E095838483178A168A95
:101C0000118E108E81E0828F138E848F158E089531
:101C1000EE0FFF1F0590F491E02D099481E090E014
:101C2000F8940C94290EF999FECF92BD81BDF89AD3
:101C3000992780B50895262FF999FECF1FBA92BD36
:101C400081BD20BD0FB6F894FA9AF99A0FBE01969D
:061C50000895F894FFCF97
:101C5600FFFFFFFF00E100000000000001000000A0
:101C660000C1808100000000000000BD083A092084
:101C760009DE08FC08D308000000002804A8035267
:081C86000DFCFF0000930D00AE
:00000001FF
